{
  "address": "0x148B43B07e57672a39456C41d26C3d70a831b2a4",
  "abi": [
    {
      "inputs": [],
      "stateMutability": "nonpayable",
      "type": "constructor"
    },
    {
      "anonymous": false,
      "inputs": [
        {
          "indexed": true,
          "internalType": "contract IERC20[2]",
          "name": "tokens",
          "type": "address[2]"
        },
        {
          "indexed": false,
          "internalType": "address",
          "name": "stakingContract",
          "type": "address"
        }
      ],
      "name": "StakingContractCreated",
      "type": "event"
    },
    {
      "inputs": [
        {
          "internalType": "address",
          "name": "_newOwner",
          "type": "address"
        }
      ],
      "name": "changeOwner",
      "outputs": [],
      "stateMutability": "nonpayable",
      "type": "function"
    },
    {
      "inputs": [
        {
          "internalType": "address",
          "name": "homeTeamFanToken",
          "type": "address"
        },
        {
          "internalType": "address",
          "name": "guestTeamFanToken",
          "type": "address"
        },
        {
          "internalType": "string",
          "name": "eventName",
          "type": "string"
        },
        {
          "internalType": "uint256",
          "name": "_stakingTime",
          "type": "uint256"
        }
      ],
      "name": "createStakingContract",
      "outputs": [
        {
          "internalType": "address",
          "name": "_stakingContract",
          "type": "address"
        }
      ],
      "stateMutability": "nonpayable",
      "type": "function"
    },
    {
      "inputs": [],
      "name": "owner",
      "outputs": [
        {
          "internalType": "address",
          "name": "",
          "type": "address"
        }
      ],
      "stateMutability": "view",
      "type": "function"
    }
  ],
  "transactionHash": "0xb16b83351d3a2205c838bce497a640e04063a1c78344c7725aa4fead397535a2",
  "args": [],
  "numDeployments": 7,
  "solcInputHash": "a7c05799a7e84ee1e816bc172c51abad",
  "bytecode": "0x608060405234801561001057600080fd5b50600080546001600160a01b03191633179055611c44806100326000396000f3fe608060405234801561001057600080fd5b50600436106100415760003560e01c80637942e249146100465780638da5cb5b14610075578063a6f9dae114610088575b600080fd5b6100596100543660046102be565b61009d565b6040516001600160a01b03909116815260200160405180910390f35b600054610059906001600160a01b031681565b61009b610096366004610398565b6101dd565b005b600080546001600160a01b031633146100d15760405162461bcd60e51b81526004016100c8906103ba565b60405180910390fd5b6040805180820182526001600160a01b03808816825286811660208301526000805493519293909291169086908490879061010b9061027f565b6101189493929190610417565b604051809103906000f080158015610134573d6000803e3d6000fd5b506001805480820182556000919091527fb10e2d527612073b26eecdfd717e6a320cf44b4afac2b0732d9fcbe2b7fa0cf60180546001600160a01b0319166001600160a01b0383161790556040519091506101909083906104a9565b6040519081900381206001600160a01b0383168252907fad1a2b68f22dd844f4f030890e06eb4f010025c9647507189839248c493ebaab9060200160405180910390a29695505050505050565b6000546001600160a01b031633146102075760405162461bcd60e51b81526004016100c8906103ba565b6001600160a01b03811661025d5760405162461bcd60e51b815260206004820152601c60248201527f4572726f723a206e6577206f776e65722069736e27742076616c69640000000060448201526064016100c8565b600080546001600160a01b0319166001600160a01b0392909216919091179055565b611728806104e783390190565b80356001600160a01b03811681146102a357600080fd5b919050565b634e487b7160e01b600052604160045260246000fd5b600080600080608085870312156102d457600080fd5b6102dd8561028c565b93506102eb6020860161028c565b9250604085013567ffffffffffffffff8082111561030857600080fd5b818701915087601f83011261031c57600080fd5b81358181111561032e5761032e6102a8565b604051601f8201601f19908116603f01168101908382118183101715610356576103566102a8565b816040528281528a602084870101111561036f57600080fd5b826020860160208301376000928101602001929092525095989497509495606001359450505050565b6000602082840312156103aa57600080fd5b6103b38261028c565b9392505050565b6020808252603a908201527f4572726f72653a20736f6c6f20696c2070726f70726965746172696f2070756f60408201527f27206573656775697265207175657374612066756e7a696f6e65000000000000606082015260800190565b600060018060a01b038087168352602060a08185015286518060a086015260005b818110156104545788810183015186820160c001528201610438565b50600060c0828701015260c0601f19601f830116860101935050604084018660005b6002811015610495578151851683529183019190830190600101610476565b505050505082608083015295945050505050565b60008183825b60028110156104d75781516001600160a01b03168352602092830192909101906001016104af565b5050506040820190509291505056fe60806040523480156200001157600080fd5b5060405162001728380380620017288339810160408190526200003491620001e0565b600080546001600160a01b0319166001600160a01b0386161790556200005d600283816200007c565b506004819055600162000071848262000357565b505050505062000423565b828054828255906000526020600020908101928215620000d4579160200282015b82811115620000d457825182546001600160a01b0319166001600160a01b039091161782556020909201916001909101906200009d565b50620000e2929150620000e6565b5090565b5b80821115620000e25760008155600101620000e7565b6001600160a01b03811681146200011357600080fd5b50565b634e487b7160e01b600052604160045260246000fd5b604051601f8201601f191681016001600160401b038111828210171562000157576200015762000116565b604052919050565b600082601f8301126200017157600080fd5b604080519081016001600160401b038111828210171562000196576200019662000116565b8060405250806040840185811115620001ae57600080fd5b845b81811015620001d5578051620001c681620000fd565b835260209283019201620001b0565b509195945050505050565b60008060008060a08587031215620001f757600080fd5b84516200020481620000fd565b602086810151919550906001600160401b03808211156200022457600080fd5b818801915088601f8301126200023957600080fd5b8151818111156200024e576200024e62000116565b62000262601f8201601f191685016200012c565b915080825289848285010111156200027957600080fd5b60005b81811015620002995783810185015183820186015284016200027c565b50600084828401015250809550505050620002b886604087016200015f565b6080959095015193969295505050565b600181811c90821680620002dd57607f821691505b602082108103620002fe57634e487b7160e01b600052602260045260246000fd5b50919050565b601f8211156200035257600081815260208120601f850160051c810160208610156200032d5750805b601f850160051c820191505b818110156200034e5782815560010162000339565b5050505b505050565b81516001600160401b0381111562000373576200037362000116565b6200038b81620003848454620002c8565b8462000304565b602080601f831160018114620003c35760008415620003aa5750858301515b600019600386901b1c1916600185901b1785556200034e565b600085815260208120601f198616915b82811015620003f457888601518255948401946001909101908401620003d3565b5085821015620004135787850151600019600388901b60f8161c191681555b5050505050600190811b01905550565b6112f580620004336000396000f3fe608060405234801561001057600080fd5b50600436106101425760003560e01c80638c0a66e4116100b8578063abe50f191161007c578063abe50f191461034b578063b45d39c71461035e578063b684c4e714610371578063c47f002714610384578063e52d984214610397578063e88705121461039f57600080fd5b80638c0a66e4146102895780638c46d9b21461029c57806398807d84146102cf578063a21fbc921461031c578063aa6ca8081461033657600080fd5b8063487a8a5d1161010a578063487a8a5d146101a15780634f64b2be146101a95780635e42d6b7146101d4578063625adaf21461024d5780636e1dc66e146102605780638005a7de1461028057600080fd5b806306fdde0314610147578063157c22971461016557806317d7de7c1461017a5780632def6620146101825780633c58ba861461018a575b600080fd5b61014f6103b2565b60405161015c9190610e03565b60405180910390f35b610178610173366004610e51565b610440565b005b61014f610478565b61017861050a565b61019360035481565b60405190815260200161015c565b600354610193565b6101bc6101b7366004610e51565b6107ea565b6040516001600160a01b03909116815260200161015c565b6102296101e2366004610e82565b604080518082018252600080825260209182018190526001600160a01b03938416815260058252829020825180840190935280548352600101549092169181019190915290565b60408051825181526020928301516001600160a01b0316928101929092520161015c565b61017861025b366004610eed565b610814565b61019361026e366004610e82565b60076020526000908152604090205481565b61019360045481565b610178610297366004610e82565b610855565b6102bf6102aa366004610e82565b60066020526000908152604090205460ff1681565b604051901515815260200161015c565b6102ff6102dd366004610e82565b600560205260009081526040902080546001909101546001600160a01b031682565b604080519283526001600160a01b0390911660208301520161015c565b6003543360009081526005602052604090205410156102bf565b61033e610928565b60405161015c9190610f9f565b610178610359366004610ffa565b610989565b61017861036c366004610e51565b610c75565b61017861037f366004610e82565b610ca4565b61017861039236600461102a565b610d14565b600454610193565b6101786103ad366004610e82565b610d4a565b600180546103bf906110bf565b80601f01602080910402602001604051908101604052809291908181526020018280546103eb906110bf565b80156104385780601f1061040d57610100808354040283529160200191610438565b820191906000526020600020905b81548152906001019060200180831161041b57829003601f168201915b505050505081565b6000546001600160a01b031633146104735760405162461bcd60e51b815260040161046a906110f9565b60405180910390fd5b600355565b606060018054610487906110bf565b80601f01602080910402602001604051908101604052809291908181526020018280546104b3906110bf565b80156105005780601f106104d557610100808354040283529160200191610500565b820191906000526020600020905b8154815290600101906020018083116104e357829003601f168201915b5050505050905090565b600454336000908152600760205260409020546105279190611156565b42101561058e5760405162461bcd60e51b815260206004820152602f60248201527f4572726f72653a20706572696f646f206469207374616b696e67206e6f6e206160448201526e6e636f7261207465726d696e61746f60881b606482015260840161046a565b3360009081526006602052604090205460ff166105fb5760405162461bcd60e51b815260206004820152602560248201527f4572726f723a73656e646572206e65766572207374616b656420736f6d6520746044820152646f6b656e7360d81b606482015260840161046a565b600260008154811061060f5761060f61117d565b600091825260208083209091015433835260059091526040909120600101546001600160a01b039182169116036106ed5760026000815481106106545761065461117d565b60009182526020808320919091015433808452600590925260409283902054925163a9059cbb60e01b8152600481019290925260248201929092526001600160a01b039091169063a9059cbb906044016020604051808303816000875af11580156106c3573d6000803e3d6000fd5b505050506040513d601f19601f820116820180604052508101906106e79190611193565b50610796565b60026001815481106107015761070161117d565b60009182526020808320919091015433808452600590925260409283902054925163a9059cbb60e01b8152600481019290925260248201929092526001600160a01b039091169063a9059cbb906044016020604051808303816000875af1158015610770573d6000803e3d6000fd5b505050506040513d601f19601f820116820180604052508101906107949190611193565b505b3360008181526005602081815260408084208490556007825280842084905591815290519182527f0f5bb82176feb1b5e747e28471aa92156a04d9f3ab9f45f28e2d704232b93f75910160405180910390a2565b600281815481106107fa57600080fd5b6000918252602090912001546001600160a01b0316905081565b6000546001600160a01b0316331461083e5760405162461bcd60e51b815260040161046a906110f9565b8051610851906002906020840190610d89565b5050565b6000546001600160a01b0316331461087f5760405162461bcd60e51b815260040161046a906110f9565b6001600160a01b03818116600090815260056020526040808220600181015492549054915163a9059cbb60e01b81529084166004820152602481019190915291169063a9059cbb906044016020604051808303816000875af11580156108e9573d6000803e3d6000fd5b505050506040513d601f19601f8201168201806040525081019061090d9190611193565b506001600160a01b0316600090815260056020526040812055565b6060600280548060200260200160405190810160405280929190818152602001828054801561050057602002820191906000526020600020905b81546001600160a01b03168152600190910190602001808311610962575050505050905090565b6003548210156109db5760405162461bcd60e51b815260206004820152601a60248201527f4572726f72653a20696d706f72746f206e6f6e2076616c69646f000000000000604482015260640161046a565b8015610ace5760026000815481106109f5576109f561117d565b6000918252602090912001546040516323b872dd60e01b8152336004820152306024820152604481018490526001600160a01b03909116906323b872dd906064016020604051808303816000875af1158015610a55573d6000803e3d6000fd5b505050506040513d601f19601f82011682018060405250810190610a799190611193565b506002600081548110610a8e57610a8e61117d565b60009182526020808320909101543383526005909152604090912060010180546001600160a01b0319166001600160a01b03909216919091179055610bb7565b6002600181548110610ae257610ae261117d565b6000918252602090912001546040516323b872dd60e01b8152336004820152306024820152604481018490526001600160a01b03909116906323b872dd906064016020604051808303816000875af1158015610b42573d6000803e3d6000fd5b505050506040513d601f19601f82011682018060405250810190610b669190611193565b506002600181548110610b7b57610b7b61117d565b60009182526020808320909101543383526005909152604090912060010180546001600160a01b0319166001600160a01b039092169190911790555b3360009081526006602052604090205460ff161515600103610bfd573360009081526005602052604081208054849290610bf2908490611156565b90915550610c259050565b33600090815260056020908152604080832085905560069091529020805460ff191660011790555b3360008181526007602052604090819020429055517f9e71bc8eea02a63969f509818f2dafb9254532904319f9dbda79b67bd34a5f3d90610c699085815260200190565b60405180910390a25050565b6000546001600160a01b03163314610c9f5760405162461bcd60e51b815260040161046a906110f9565b600455565b6000546001600160a01b03163314610cce5760405162461bcd60e51b815260040161046a906110f9565b806002600181548110610ce357610ce361117d565b9060005260206000200160006101000a8154816001600160a01b0302191690836001600160a01b0316021790555050565b6000546001600160a01b03163314610d3e5760405162461bcd60e51b815260040161046a906110f9565b600161085182826111ff565b6000546001600160a01b03163314610d745760405162461bcd60e51b815260040161046a906110f9565b806002600081548110610ce357610ce361117d565b828054828255906000526020600020908101928215610dde579160200282015b82811115610dde57825182546001600160a01b0319166001600160a01b03909116178255602090920191600190910190610da9565b50610dea929150610dee565b5090565b5b80821115610dea5760008155600101610def565b600060208083528351808285015260005b81811015610e3057858101830151858201604001528201610e14565b506000604082860101526040601f19601f8301168501019250505092915050565b600060208284031215610e6357600080fd5b5035919050565b6001600160a01b0381168114610e7f57600080fd5b50565b600060208284031215610e9457600080fd5b8135610e9f81610e6a565b9392505050565b634e487b7160e01b600052604160045260246000fd5b604051601f8201601f1916810167ffffffffffffffff81118282101715610ee557610ee5610ea6565b604052919050565b60006020808385031215610f0057600080fd5b823567ffffffffffffffff80821115610f1857600080fd5b818501915085601f830112610f2c57600080fd5b813581811115610f3e57610f3e610ea6565b8060051b9150610f4f848301610ebc565b8181529183018401918481019088841115610f6957600080fd5b938501935b83851015610f935784359250610f8383610e6a565b8282529385019390850190610f6e565b98975050505050505050565b6020808252825182820181905260009190848201906040850190845b81811015610fe05783516001600160a01b031683529284019291840191600101610fbb565b50909695505050505050565b8015158114610e7f57600080fd5b6000806040838503121561100d57600080fd5b82359150602083013561101f81610fec565b809150509250929050565b6000602080838503121561103d57600080fd5b823567ffffffffffffffff8082111561105557600080fd5b818501915085601f83011261106957600080fd5b81358181111561107b5761107b610ea6565b61108d601f8201601f19168501610ebc565b915080825286848285010111156110a357600080fd5b8084840185840137600090820190930192909252509392505050565b600181811c908216806110d357607f821691505b6020821081036110f357634e487b7160e01b600052602260045260246000fd5b50919050565b6020808252603a908201527f4572726f72653a20736f6c6f20696c2070726f70726965746172696f2070756f60408201527f27206573656775697265207175657374612066756e7a696f6e65000000000000606082015260800190565b8082018082111561117757634e487b7160e01b600052601160045260246000fd5b92915050565b634e487b7160e01b600052603260045260246000fd5b6000602082840312156111a557600080fd5b8151610e9f81610fec565b601f8211156111fa57600081815260208120601f850160051c810160208610156111d75750805b601f850160051c820191505b818110156111f6578281556001016111e3565b5050505b505050565b815167ffffffffffffffff81111561121957611219610ea6565b61122d8161122784546110bf565b846111b0565b602080601f831160018114611262576000841561124a5750858301515b600019600386901b1c1916600185901b1785556111f6565b600085815260208120601f198616915b8281101561129157888601518255948401946001909101908401611272565b50858210156112af5787850151600019600388901b60f8161c191681555b5050505050600190811b0190555056fea26469706673582212200f3014e1983f7820b8c1ddb463b627677be53781ab7aa17cf424a4ae03aa8c7964736f6c63430008130033a264697066735822122073a4e4c055800688f5c0a4125085276f59b3bd95d20120155935eba82554c76764736f6c63430008130033",
  "devdoc": {
    "author": "WeDev00",
    "details": "The contract uses smart contract staking to create new contracts",
    "kind": "dev",
    "methods": {
      "changeOwner(address)": {
        "params": {
          "_newOwner": "New owner's address"
        }
      },
      "constructor": {
        "details": "Contract's constructor"
      },
      "createStakingContract(address,address,string,uint256)": {
        "params": {
          "_stakingTime": "Staking duration in seconds",
          "guestTeamFanToken": "Address of the ERC-20 token guest club to be staked",
          "homeTeamFanToken": "Address of the ERC-20 token home club to be staked"
        },
        "returns": {
          "_stakingContract": "Address of the new staking contract"
        }
      }
    },
    "title": "Factory contract for the creation of staking contracts",
    "version": 1
  },
  "userdoc": {
    "kind": "user",
    "methods": {
      "changeOwner(address)": {
        "notice": "Function to change the owner of the contract"
      },
      "createStakingContract(address,address,string,uint256)": {
        "notice": "Function to create a new staking contract"
      }
    },
    "notice": "This contract allows new staking contracts to be created for several ERC-20 tokens",
    "version": 1
  },
  "storageLayout": {
    "storage": [
      {
        "astId": 555,
        "contract": "contracts/ChatFactory.sol:StakingFactory",
        "label": "owner",
        "offset": 0,
        "slot": "0",
        "type": "t_address"
      },
      {
        "astId": 558,
        "contract": "contracts/ChatFactory.sol:StakingFactory",
        "label": "deployedContract",
        "offset": 0,
        "slot": "1",
        "type": "t_array(t_address)dyn_storage"
      }
    ],
    "types": {
      "t_address": {
        "encoding": "inplace",
        "label": "address",
        "numberOfBytes": "20"
      },
      "t_array(t_address)dyn_storage": {
        "base": "t_address",
        "encoding": "dynamic_array",
        "label": "address[]",
        "numberOfBytes": "32"
      }
    }
  }
}